{
  "_format": "hh-sol-artifact-1",
  "contractName": "Uniswap",
  "sourceName": "contracts/Uniswap.sol",
  "abi": [
    {
      "inputs": [
        {
          "internalType": "address",
          "name": "owner",
          "type": "address"
        }
      ],
      "name": "OwnableInvalidOwner",
      "type": "error"
    },
    {
      "inputs": [
        {
          "internalType": "address",
          "name": "account",
          "type": "address"
        }
      ],
      "name": "OwnableUnauthorizedAccount",
      "type": "error"
    },
    {
      "anonymous": false,
      "inputs": [
        {
          "indexed": true,
          "internalType": "address",
          "name": "previousOwner",
          "type": "address"
        },
        {
          "indexed": true,
          "internalType": "address",
          "name": "newOwner",
          "type": "address"
        }
      ],
      "name": "OwnershipTransferred",
      "type": "event"
    },
    {
      "inputs": [
        {
          "internalType": "address",
          "name": "token",
          "type": "address"
        },
        {
          "internalType": "uint256",
          "name": "priceToken",
          "type": "uint256"
        }
      ],
      "name": "BuyTokenWithETH",
      "outputs": [
        {
          "internalType": "uint256",
          "name": "",
          "type": "uint256"
        }
      ],
      "stateMutability": "payable",
      "type": "function"
    },
    {
      "inputs": [],
      "name": "fee",
      "outputs": [
        {
          "internalType": "uint256",
          "name": "",
          "type": "uint256"
        }
      ],
      "stateMutability": "view",
      "type": "function"
    },
    {
      "inputs": [
        {
          "internalType": "address",
          "name": "token1",
          "type": "address"
        },
        {
          "internalType": "address",
          "name": "token2",
          "type": "address"
        },
        {
          "internalType": "uint256",
          "name": "priceToken1",
          "type": "uint256"
        },
        {
          "internalType": "uint256",
          "name": "priceToken2",
          "type": "uint256"
        },
        {
          "internalType": "uint256",
          "name": "amountOut",
          "type": "uint256"
        }
      ],
      "name": "getAmountIn",
      "outputs": [
        {
          "internalType": "uint256",
          "name": "",
          "type": "uint256"
        }
      ],
      "stateMutability": "view",
      "type": "function"
    },
    {
      "inputs": [
        {
          "internalType": "address",
          "name": "token",
          "type": "address"
        }
      ],
      "name": "getAmountInMax",
      "outputs": [
        {
          "internalType": "uint256",
          "name": "",
          "type": "uint256"
        }
      ],
      "stateMutability": "view",
      "type": "function"
    },
    {
      "inputs": [
        {
          "internalType": "address",
          "name": "token1",
          "type": "address"
        },
        {
          "internalType": "address",
          "name": "token2",
          "type": "address"
        },
        {
          "internalType": "uint256",
          "name": "priceToken1",
          "type": "uint256"
        },
        {
          "internalType": "uint256",
          "name": "priceToken2",
          "type": "uint256"
        },
        {
          "internalType": "uint256",
          "name": "amountIn",
          "type": "uint256"
        }
      ],
      "name": "getAmountOut",
      "outputs": [
        {
          "internalType": "uint256",
          "name": "",
          "type": "uint256"
        }
      ],
      "stateMutability": "view",
      "type": "function"
    },
    {
      "inputs": [
        {
          "internalType": "address",
          "name": "token",
          "type": "address"
        }
      ],
      "name": "getBalanceOfToken",
      "outputs": [
        {
          "internalType": "uint256",
          "name": "",
          "type": "uint256"
        }
      ],
      "stateMutability": "view",
      "type": "function"
    },
    {
      "inputs": [],
      "name": "owner",
      "outputs": [
        {
          "internalType": "address",
          "name": "",
          "type": "address"
        }
      ],
      "stateMutability": "view",
      "type": "function"
    },
    {
      "inputs": [],
      "name": "renounceOwnership",
      "outputs": [],
      "stateMutability": "nonpayable",
      "type": "function"
    },
    {
      "inputs": [
        {
          "internalType": "address",
          "name": "token1",
          "type": "address"
        },
        {
          "internalType": "address",
          "name": "token2",
          "type": "address"
        },
        {
          "internalType": "uint256",
          "name": "amountToken1",
          "type": "uint256"
        },
        {
          "internalType": "uint256",
          "name": "amountToken2",
          "type": "uint256"
        }
      ],
      "name": "swapToken",
      "outputs": [],
      "stateMutability": "nonpayable",
      "type": "function"
    },
    {
      "inputs": [
        {
          "internalType": "address",
          "name": "newOwner",
          "type": "address"
        }
      ],
      "name": "transferOwnership",
      "outputs": [],
      "stateMutability": "nonpayable",
      "type": "function"
    },
    {
      "inputs": [
        {
          "internalType": "address",
          "name": "token",
          "type": "address"
        },
        {
          "internalType": "address",
          "name": "receiver",
          "type": "address"
        },
        {
          "internalType": "uint256",
          "name": "amount",
          "type": "uint256"
        }
      ],
      "name": "transferToAddress",
      "outputs": [],
      "stateMutability": "nonpayable",
      "type": "function"
    },
    {
      "inputs": [],
      "name": "withdrawETH",
      "outputs": [],
      "stateMutability": "nonpayable",
      "type": "function"
    },
    {
      "inputs": [
        {
          "internalType": "address",
          "name": "tokenAddress",
          "type": "address"
        }
      ],
      "name": "withdrawTokens",
      "outputs": [],
      "stateMutability": "nonpayable",
      "type": "function"
    }
  ],
  "bytecode": "0x6080604052600260015534801561001557600080fd5b50338061003c57604051631e4fbdf760e01b81526000600482015260240160405180910390fd5b6100458161004b565b5061009b565b600080546001600160a01b038381166001600160a01b0319831681178455604051919092169283917f8be0079c531659141344cd1fd0a4f28419497f9722a3daafe3b4186f6b6457e09190a35050565b6113a6806100aa6000396000f3fe6080604052600436106100d25760003560e01c80638b85d09d1161007f578063ddca3f4311610059578063ddca3f43146101fc578063e086e5ec14610212578063f1dfeabe14610227578063f2fde38b1461024757600080fd5b80638b85d09d146101a15780638da5cb5b146101b4578063cef496b1146101dc57600080fd5b8063715018a6116100b0578063715018a614610139578063830684d61461014e57806383786f8c1461018157600080fd5b806323dc210f146100d757806337476ced146100f957806349df728c14610119575b600080fd5b3480156100e357600080fd5b506100f76100f23660046111b0565b610267565b005b34801561010557600080fd5b506100f76101143660046111ec565b61059d565b34801561012557600080fd5b506100f761013436600461122e565b6108ab565b34801561014557600080fd5b506100f76109c9565b34801561015a57600080fd5b5061016e61016936600461122e565b6109dd565b6040519081526020015b60405180910390f35b34801561018d57600080fd5b5061016e61019c36600461122e565b610a7b565b61016e6101af366004611249565b610aef565b3480156101c057600080fd5b506000546040516001600160a01b039091168152602001610178565b3480156101e857600080fd5b5061016e6101f7366004611273565b610bd2565b34801561020857600080fd5b5061016e60015481565b34801561021e57600080fd5b506100f7610e09565b34801561023357600080fd5b5061016e610242366004611273565b610e4e565b34801561025357600080fd5b506100f761026236600461122e565b611092565b600081116102bc5760405162461bcd60e51b815260206004820152601f60248201527f416d6f756e74496e206d7573742062652067726561746572207468616e20300060448201526064015b60405180910390fd5b6040516370a0823160e01b81523360048201526000906001600160a01b038516906370a0823190602401602060405180830381865afa158015610303573d6000803e3d6000fd5b505050506040513d601f19601f8201168201806040525081019061032791906112c0565b905060006064600154606461033c91906112ef565b6103469085611302565b6103509190611319565b905060006064600154856103649190611302565b61036e9190611319565b9050828211156103e55760405162461bcd60e51b8152602060048201526024808201527f496e73756666696369656e7420746f6b656e2062616c616e636520616674657260448201527f206665650000000000000000000000000000000000000000000000000000000060648201526084016102b3565b604051636eb1769f60e11b815233600482015230602482015284906001600160a01b0388169063dd62ed3e90604401602060405180830381865afa158015610431573d6000803e3d6000fd5b505050506040513d601f19601f8201168201806040525081019061045591906112c0565b10156104a35760405162461bcd60e51b815260206004820152601960248201527f4d75737420617070726f766520746f6b656e312066697273740000000000000060448201526064016102b3565b6040516323b872dd60e01b81523360048201526001600160a01b038681166024830152604482018690528716906323b872dd906064016020604051808303816000875af11580156104f8573d6000803e3d6000fd5b505050506040513d601f19601f8201168201806040525081019061051c919061133b565b506040516323b872dd60e01b8152336004820152306024820152604481018290526001600160a01b038716906323b872dd906064016020604051808303816000875af1158015610570573d6000803e3d6000fd5b505050506040513d601f19601f82011682018060405250810190610594919061133b565b50505050505050565b6040516370a0823160e01b81523360048201526000906001600160a01b038616906370a0823190602401602060405180830381865afa1580156105e4573d6000803e3d6000fd5b505050506040513d601f19601f8201168201806040525081019061060891906112c0565b9050808311156106665760405162461bcd60e51b815260206004820152602360248201527f596f757220746f6b656e312062616c616e636520697320696e73756666696369604482015262195b9d60ea1b60648201526084016102b3565b604051636eb1769f60e11b815233600482015230602482015283906001600160a01b0387169063dd62ed3e90604401602060405180830381865afa1580156106b2573d6000803e3d6000fd5b505050506040513d601f19601f820116820180604052508101906106d691906112c0565b10156107245760405162461bcd60e51b815260206004820152601960248201527f4d75737420617070726f766520746f6b656e312066697273740000000000000060448201526064016102b3565b6040516323b872dd60e01b8152336004820152306024820152604481018490526001600160a01b038616906323b872dd906064016020604051808303816000875af1158015610777573d6000803e3d6000fd5b505050506040513d601f19601f8201168201806040525081019061079b919061133b565b6107e75760405162461bcd60e51b815260206004820152601960248201527f5472616e73666572206f6620746f6b656e31206661696c65640000000000000060448201526064016102b3565b60405163a9059cbb60e01b8152336004820152602481018390526001600160a01b0385169063a9059cbb906044016020604051808303816000875af1158015610834573d6000803e3d6000fd5b505050506040513d601f19601f82011682018060405250810190610858919061133b565b6108a45760405162461bcd60e51b815260206004820152601960248201527f5472616e73666572206f6620746f6b656e32206661696c65640000000000000060448201526064016102b3565b5050505050565b6108b36110e6565b806001600160a01b03811663a9059cbb6108d56000546001600160a01b031690565b6040516370a0823160e01b81523060048201526001600160a01b038516906370a0823190602401602060405180830381865afa158015610919573d6000803e3d6000fd5b505050506040513d601f19601f8201168201806040525081019061093d91906112c0565b6040517fffffffff0000000000000000000000000000000000000000000000000000000060e085901b1681526001600160a01b03909216600483015260248201526044016020604051808303816000875af11580156109a0573d6000803e3d6000fd5b505050506040513d601f19601f820116820180604052508101906109c4919061133b565b505050565b6109d16110e6565b6109db600061112c565b565b6040516370a0823160e01b815233600482015260009081906001600160a01b038416906370a0823190602401602060405180830381865afa158015610a26573d6000803e3d6000fd5b505050506040513d601f19601f82011682018060405250810190610a4a91906112c0565b9050600060646001546064610a5f919061135d565b610a699084611302565b610a739190611319565b949350505050565b6040516370a0823160e01b815233600482015260009081906001600160a01b038416906370a0823190602401602060405180830381865afa158015610ac4573d6000803e3d6000fd5b505050506040513d601f19601f82011682018060405250810190610ae891906112c0565b9392505050565b600066038d7ea4c68000341015610b485760405162461bcd60e51b815260206004820152600e60248201527f4e6f7420656e6f7567682065746800000000000000000000000000000000000060448201526064016102b3565b6000610b548334611319565b60405163a9059cbb60e01b8152336004820152602481018290529091506001600160a01b0385169063a9059cbb906044016020604051808303816000875af1158015610ba4573d6000803e3d6000fd5b505050506040513d601f19601f82011682018060405250810190610bc8919061133b565b5090505b92915050565b6000808211610c235760405162461bcd60e51b815260206004820152601f60248201527f416d6f756e74496e206d7573742062652067726561746572207468616e20300060448201526064016102b3565b6040516370a0823160e01b81523360048201526000906001600160a01b038816906370a0823190602401602060405180830381865afa158015610c6a573d6000803e3d6000fd5b505050506040513d601f19601f82011682018060405250810190610c8e91906112c0565b905080831115610cec5760405162461bcd60e51b815260206004820152602360248201527f596f757220746f6b656e312062616c616e636520697320696e73756666696369604482015262195b9d60ea1b60648201526084016102b3565b600060646001546064610cff919061135d565b610d099086611302565b610d139190611319565b9050600085610d228884611302565b610d2c9190611319565b6040516370a0823160e01b81523060048201529091506000906001600160a01b038a16906370a0823190602401602060405180830381865afa158015610d76573d6000803e3d6000fd5b505050506040513d601f19601f82011682018060405250810190610d9a91906112c0565b905080821115610dfc5760405162461bcd60e51b815260206004820152602760248201527f496e73756666696369656e7420746f6b656e322062616c616e636520696e20636044820152661bdb9d1c9858dd60ca1b60648201526084016102b3565b5098975050505050505050565b610e116110e6565b600080546040516001600160a01b03909116914780156108fc02929091818181858888f19350505050158015610e4b573d6000803e3d6000fd5b50565b6000808211610e9f5760405162461bcd60e51b815260206004820181905260248201527f416d6f756e744f7574206d7573742062652067726561746572207468616e203060448201526064016102b3565b6040516370a0823160e01b81523060048201526000906001600160a01b038716906370a0823190602401602060405180830381865afa158015610ee6573d6000803e3d6000fd5b505050506040513d601f19601f82011682018060405250810190610f0a91906112c0565b905080831115610f6c5760405162461bcd60e51b815260206004820152602760248201527f496e73756666696369656e7420746f6b656e322062616c616e636520696e20636044820152661bdb9d1c9858dd60ca1b60648201526084016102b3565b600085610f798686611302565b610f839190611319565b9050600060646001546064610f9891906112ef565b610fa29084611302565b610fac9190611319565b6040516370a0823160e01b81523360048201529091506000906001600160a01b038b16906370a0823190602401602060405180830381865afa158015610ff6573d6000803e3d6000fd5b505050506040513d601f19601f8201168201806040525081019061101a91906112c0565b905080821115610dfc5760405162461bcd60e51b815260206004820152602560248201527f496e73756666696369656e7420746f6b656e312062616c616e6365206166746560448201527f722066656500000000000000000000000000000000000000000000000000000060648201526084016102b3565b61109a6110e6565b6001600160a01b0381166110dd576040517f1e4fbdf7000000000000000000000000000000000000000000000000000000008152600060048201526024016102b3565b610e4b8161112c565b6000546001600160a01b031633146109db576040517f118cdaa70000000000000000000000000000000000000000000000000000000081523360048201526024016102b3565b600080546001600160a01b038381167fffffffffffffffffffffffff0000000000000000000000000000000000000000831681178455604051919092169283917f8be0079c531659141344cd1fd0a4f28419497f9722a3daafe3b4186f6b6457e09190a35050565b80356001600160a01b03811681146111ab57600080fd5b919050565b6000806000606084860312156111c557600080fd5b6111ce84611194565b92506111dc60208501611194565b9150604084013590509250925092565b6000806000806080858703121561120257600080fd5b61120b85611194565b935061121960208601611194565b93969395505050506040820135916060013590565b60006020828403121561124057600080fd5b610ae882611194565b6000806040838503121561125c57600080fd5b61126583611194565b946020939093013593505050565b600080600080600060a0868803121561128b57600080fd5b61129486611194565b94506112a260208701611194565b94979496505050506040830135926060810135926080909101359150565b6000602082840312156112d257600080fd5b5051919050565b634e487b7160e01b600052601160045260246000fd5b80820180821115610bcc57610bcc6112d9565b8082028115828204841417610bcc57610bcc6112d9565b60008261133657634e487b7160e01b600052601260045260246000fd5b500490565b60006020828403121561134d57600080fd5b81518015158114610ae857600080fd5b81810381811115610bcc57610bcc6112d956fea264697066735822122026810993b9525c4ae202f78e7d6d1c5071cd4ff062707322b59c9d0a1b98c11864736f6c63430008180033",
  "linkReferences": {},
  "deployedLinkReferences": {}
}